:020000040000FA
:0600000002010702204D81
:03002B000222C9E5
:030033000222ABFB
:03003B000222EFAF
:0300430002225F37
:030053000220C3C5
:03006B000223531A
:10008300021EA3E5C754F84401F5C7790122000015
:100093000080FB120086B900030200F1E4791A78AC
:1000A30002B800028004F709D8FCE4791C7802B88E
:1000B30000028004F709D8FCE490028178B579172F
:1000C3008002F0A3D8FCD9FA7A357B1990013778EE
:1000D300DB79018015E493A3AD82AE838A828B839F
:1000E300F0A3AA82AB838D828E83D8E9D9E7758288
:1000F300917583CB74031201197582917583007412
:100103000012011975D00075813F751881751902A8
:10011300759F00020096C09FF59FE473D09F22D085
:1001230083D082C09FE493C0E0740193C0E0740263
:1001330093F59F228B039703C703C103FF0000B40A
:10014300000028002800283075A000A000A000A00F
:100153000000080008E001F000100010001000107B
:10016300001000100050005000500010001000D08C
:10017300070000000000000F0001000500307507B4
:10018300001000010081FF00000000FFFFFF0202DA
:10019300021F900100000D900225900100008F19AD
:1001A300021790010000B802022590010000901987
:1001B300021590010000CE02FFFF0100FF20021F85
:1001C300900100001090022590010000BE19021357
:1001D300900000000000021990030000FA021700CB
:1001E300A70BA70BA70BA70BA70BA70BA70BA70B7C
:1001F300A70BA70BA70BA70BA70BBD0DDB0DB70D0C
:1002030001E803057710020AFFFFFF00FEFF12015A
:100213002235BF0312012248BF0312012269BF0323
:10022300120122D4BF0312012215C0031201223688
:10023300C00312012277C003120122BFC0031201BF
:100243002265A50312012278A503120122A9A503A1
:10025300120122E3A5031201223CA6031201228309
:10026300A603120122CBA603120122FAA60312014E
:100273002229A70312012260A703120122A7A703C1
:10028300120122C0A70312012215A803120122435F
:10029300A8031201227DA803120122C4A1021201A4
:1002A30022C7A202120122F4A20212012245A302D2
:1002B30012012268A3021201227AA3021201227DF3
:1002C300A302120122BBA3021201222FA4021201D4
:1002D300229BA40212012263A5021201227FA5021E
:1002E300120122B6A502120122F0A50212012287F1
:1002F300A602120122D9A6021201220AA7021201A2
:100303002217A70212012281A70212012284A70247
:10031300120122DBA702120122DEA7021201221719
:10032300A8021201221AA80212012226A80212010F
:100333002229A8021201227DA802120122C6A802C4
:10034300120122D6A80212012209A90212012216C1
:10035300A90212012219A90212012281A902120182
:100363002283AA0212012227AB0212012290AB02BE
:10037300120122CEAB02120122A8B502120122A061
:10038300B602120122D4B6021201226AB702120186
:1003930022B5B70212012219B802120122A3B80230
:1003A3001201225CB9021201227EBC02120122FB5D
:1003B300BD021201221EBE02120122B9B2031201B2
:1003C30022D9B203120122FAB3031201224DB4035C
:1003D3001201227A9203120122A29203120122CF66
:1003E3009203120122079303120122659303120160
:1003F30022B1930312012218940312012258940389
:10040300120122959403120122C394031201226D57
:100413009503120122779503120122849503120199
:1004230022B79503120122C39503120122DB950320
:10043300120122E595031201229EC803120122AC88
:10044300C803120122C4C803120122DBC80312012C
:10045300227D6F00120122277000120122A3700077
:10046300120122C17100120122FD710012012298B2
:1004730072001201227C73001201223F74001201E8
:1004830022B77400120122457600120122B67600CB
:10049300120122707700120122627800120122A257
:1004A3007800120122567900120122887900120184
:1004B300227E7B00120122C07B00120122DE7B0020
:1004C300120122637C00120122277D0012012246C1
:1004D3007F001201227396031201228996031201EF
:1004E30022A79603120122B89703120122C297038F
:1004F300120122ED9803120122E499031201225101
:100503009A03120122C8F6021201226CF7021201A9
:1005130022A3F702120122FAF7021201220FFA02B2
:10052300120122329001120122E39001120122F8FA
:100533009001120122BE9101120122B19201120116
:100543002268930112012276960112012265980115
:10055300120122179901120122E0990112012225A9
:100563009D01120122CF9D01120122F89E01120169
:1005730022B4A00112012254A101120122A2A1015D
:10058300120122E1A101120122B4A201120122E807
:10059300A20112012275A3011201229FCA011201B5
:1005A300222BCB011201228FCC011201229BCC0101
:1005B300120122D6CC0112012245CD011201224E95
:1005C300CE0112012257CF011201221ED0011201C6
:1005D300227BD10112012299D101120122B6D1014C
:1005E30012012281D201120122A9D2011201227326
:1005F300D50112012278D50112012291D7011201EE
:1006030022DFD7011201224FD8011201228DD80116
:1006130012012269D90112012229DA01120122757C
:10062300DA0112012278DA01120122BCDA01120185
:100633002204DB0112012243DB0112012265DB01EB
:1006430012012299DB01120122FCDB01120122BEFD
:10065300F102120122C7F102120122D5F1021201A5
:100663002228F20212012247F2021201228CF20224
:10067300120122D0F3021201226BF402120122AF03
:10068300F402120122D9F40212012248F5021201E6
:10069300228EF50212012205F602120122B6F6029B
:1006A300120122942300120122A4230012012245E5
:1006B3002400120122A124001201225E250012014E
:1006C300227A2600120122AC2600120122DB260028
:1006D300120122882800120122FF2A001201226F30
:1006E3002D00120122612E001201225A2F00120145
:1006F3002261310012012255340012012284350097
:100703001201228837001201229838001201222791
:100713003A00120122183B00120122663B0012012B
:1007230022D53B00120122F93B001201224A3C0070
:10073300120122EB4000120122EC41001201224D72
:1007430042001201227842001201223E43001201AC
:10075300225B9A03120122659A03120122AA9A03C9
:10076300120122BE9A031201224E9B03120122762A
:100773009B03120122B19B03120122DA9B03120194
:10078300220E9C03120122239C03120122449C0388
:10079300120122589C031201226D9C03120122A70D
:1007A3009C03120122D59C031201225D9D031201B9
:1007B30022A09D03120122CA9D03120122069E0359
:1007C30012012290C5031201227C8C021201225FC6
:1007D3008D02120122DA8D02120122158E021201FC
:1007E30022668F02120122EF8F0212012207920268
:1007F3001201229994021201224B95021201226ADC
:100803009602120122C3960212012280E70212010C
:1008130022C3E70212012247E8021201221AE90267
:10082300120122F1EB021201225AB503120122072F
:10083300B60312012214B70312012253B7031201A4
:1008430022ADB703120122C7BB031201222ABC0344
:10085300120122C7BC03120122F5BC0312012216A6
:10086300BD0312012251BD0312012271BD03120106
:10087300220080031201228C80031201224B810388
:100883001201226382031201227D8403120122F4E6
:10089300AB0212012219AC02120122EDAC021201C9
:1008A300225AAD02120122B0AD021201224CAE0255
:1008B30012012280AF021201225BB002120122BA9E
:1008C300B0021201228BB10212012217B2021201ED
:1008D300221AB20212012264B202120122D6B20219
:1008E30012012281B302120122A1B302120122E9F1
:1008F300B30212012205B4021201227FB4021201D3
:10090300228DB4021201221CB50212012285B50206
:10091300120122E48D03120122698E03120122AB1C
:100923008E031201228F8F03120122FC8F03120107
:1009330022409003120122849003120122B19003FA
:10094300120122D990031201221191031201224FA5
:100953009103120122769103120122F091031201F5
:10096300223A92031201222FB801120122FCB9018B
:10097300120122E5BB0112012239BC0112012264DA
:10098300BC0112012213BD0112012257BD01120144
:10099300229BBD01120122AEBD01120122EFBD0156
:1009A3001201221CBE011201226ABE01120122B0F1
:1009B300BE01120122DBBE011201222EBF01120170
:1009C30022BABF01120122A3C0011201228DC1016B
:1009D300120122E6C3011201223FC4011201227B4C
:1009E300C40112012257C60112012210C8011201CB
:1009F3002215C8011201223BC9011201226BCA014F
:100A03001201227CCA01120122AA4300120122F31D
:100A13004300120122204400120122524400120119
:100A2300225E44001201226A440012012281440022
:100A33001201225C4500120122BA4500120122EF85
:100A430045001201222047001201226D47001201C6
:100A530022BB470012012219480012012202490059
:100A63001201227E4A00120122474B001201225733
:100A73004B00120122814B00120122844B00120110
:100A8300225B4C001201220C4D00120122B14D00D9
:100A93001201220F4E00120122564E00120122DAD9
:100AA3004E00120122754F00120122205000120144
:100AB30022CC50001201223E510012012285510026
:100AC300120122E95100120122185200120122CA16
:100AD30052001201220E530012012253530012013D
:100AE30022D553001201225F5400120122745500D3
:100AF300120122FA55001201223756001201224C2C
:100B03005600120122BF560012012204570012019F
:100B130022095800120122BA580012012216590064
:100B23001201227259001201228B59001201224133
:100B3300BF0212012295BF02120122A1BF021201BC
:100B4300226BC00212012298C002120122C6C00207
:100B530012012232C10212012268C102120122A132
:100B6300C102120122B9C1021201220EC2021201F4
:100B73002227C2021201226CC2021201227FC20288
:100B830012012299C202120122AFC202120122CD26
:100B9300C302120122F8C402120122E2C5021201A9
:100BA30022D3C602120122892300120122A3EC02DE
:100BB30012012226F00212012273F1021201220015
:100BC3008002120122D38202120122D9820212016F
:100BD30022698502120122CC87021201224D890368
:100BE300120122E48903120122A28A03120122CCF8
:100BF3008A03120122A68C03120122AB8D03120178
:100C0300226BA4011201229DA40112012282AE01D2
:100C1300120122D3AF01120122DCB0011201225BC7
:100C2300B20112012242B30112012291B301120156
:100C330022ABB301120122F1B30112012238B40134
:100C430012012241B401120122EDB401120122C6A4
:100C5300B5011201220DB60112012275B60112016E
:100C630022B7B601120122E5B60112012222B70111
:100C730012012240AC03120122B6AC03120122CCB2
:100C8300AC031201225CAD0312012299AD031201E0
:100C930022D3AD031201220DAE0312012280AE0353
:100CA300120122C1AE03120122CAAE03120122D6DF
:100CB300AE03120122F5AE031201221FAF0312018C
:100CC300224FAF03120122E9F801120122FCF801BD
:100CD30012012216F90112012243F901120122899C
:100CE300F901120122BCF901120122FAF9011201E0
:100CF300225FFA0112012274FA011201228BFA0116
:100D030012012299FA01120122A8FA01120122BD4D
:100D1300FA01120122D2FA01120122DDFA011201B3
:100D230022E9FA01120122F6FA0112012209FB015A
:100D330012012214FB0112012239FB01120122DDEF
:100D4300FB01120122F2FB0112012207FC01120135
:100D53002221FC011201223EFC011201225BFC0153
:100D630012012266FC0112012212FD01120122F37B
:100D7300FD0112012218FE0112012223FE011201BC
:100D83002238FE011201224CFE01120122ADFE01A6
:100D9300120122B3FE01120122B9FE01120122BF88
:100DA300FE01120122D7FE011201220AFF011201E4
:100DB300226C97021201228E970212012256980288
:100DC300120122109B02120122269C0212012247C9
:100DD3009D02120122219E02120122D09E021201C3
:100DE3002266EB01120122FDEB0112012295EC01B7
:100DF30012012285ED01120122BCED01120122CF65
:100E0300ED011201223DEE01120122D8EF01120180
:100E130022FFEF01120122A1F001120122D6F001FB
:100E2300120122E7F00112012260F1011201228175
:100E3300F10112012299F101120122F1F2011201D1
:100E430022FAF4011201224AF7011201224DF8019C
:100E53001201229CF801120122D4DC01120122D1D9
:100E6300DD01120122BCDE01120122C6DE011201E4
:100E730022E8DE01120122F4DE0112012246E00122
:100E830012012275E001120122A5E101120122E7FC
:100E9300E10112012213E301120122E9E30112012C
:100EA300223BE4011201229AE401120122D1E4015E
:100EB3001201220CE501120122A7E801120122C04E
:100EC300E80112012242E90112012250E901120153
:100ED30022A5E901120122B3E90112012220EA014C
:100EE30012012292EA01120122D8EA011201227FA1
:100EF300BD03120122A4BD0312012215BE03120178
:100F0300228DC80212012296C8021201229FC80232
:100F1300120122D0C902120122EFCB0212012225B3
:100F2300CC021201225FCC0212012295CC021201E3
:100F330022CFCC0212012203CD021201222FCD02B5
:100F430012012278CD02120122B2CD02120122FA3D
:100F5300CD0212012250CE0212012285CE021201CD
:100F630022E0CE021201221ACF021201226BCF021B
:100F7300120122A1CF02120122DBCF02120122FEB3
:100F8300CF02120122537F001201227F7F00120140
:100F930022DA7F00120122E47F00120122F47F0093
:100FA300120122B48403120122F384031201228367
:100FB3008503120122C28503120122D18503120186
:100FC300222A8603120122798603120122D2860382
:100FD300120122DF8703120122D88803120122158E
:100FE30089031201228CFF01120122BB5900120155
:100FF300223B5C00120122AF5D001201220C5E0055
:10100300120122B55E00120122B25F001201223AE0
:101013006000120122C66000120122EB600012017F
:10102300223B6100120122DC63001201224D6400A5
:10103300120122396500120122736500120122B3E5
:101043006500120122536700120122846700120116
:1010530022D9670012012226680012012297680034
:10106300120122BA6800120122D46800120122EA96
:101073006900120122FA69001201228B6B0012012E
:1010830022AB6B00120122E16B00120122656D009D
:10109300120122DE6D001201221D6E001201224F89
:1010A3006F00120122FAB9031201225EBA03120180
:1010B300220DBB031201222CBB0312012280BB03AE
:1010C3001201226BC9031201227CC903120122E41B
:1010D300CB0312012223CC03120122ECFF011201E4
:1010E300221FCA031201222FCA031201224ACA0372
:1010F300120122B2CA03120122A4C603120122283A
:10110300C7031201228EC70312012212C403120164
:10111300223BC403120122A8C403120122FCC4030C
:1011230012012255C5031201227DAF03120122923F
:10113300AF03120122B6B00312012220B103120140
:101143002294B103120122AEB103120122C5B103ED
:10115300120122D8B103120122F0B10312012205B8
:10116300B20312012226B20312012277B203120143
:10117300222E9E03120122459E03120122BE9E03CC
:10118300120122939F0312012265A103120122CAB5
:10119300A10312012244A203120122D6A2031201C7
:1011A30022AAA303120122A5A403120122B3A403BA
:1011B300120122C1A403120122F9A4031201220C79
:1011C300A5031201225BA50312012288C2031201A7
:1011D30022B1C203120122DAC20312012273C30332
:1011E3001201228BC303120122CDC3031201228CED
:1011F300D00212012296D002120122D6D00212018D
:10120300221FD10212012259D102120122AFD102AF
:10121300120122CED10212012253D4021201225C06
:10122300D402120122ADD402120122D6D402120139
:1012330022EBD4021201225BD502120122E9D5026C
:101243001201222DD60212012255D602120122D4F6
:10125300D60212012217D70212012254D702120119
:101263002266D70212012285D7021201228ED702EB
:1012730012012253D802120122EAC0031201223BB7
:10128300C103120122C4C1031201222AC2031201A3
:1012930022E5A8031201220FA90312012209AA03BE
:1012A3001201222EAA03120122CFAA0312012255F0
:1012B300AB03120122A7C703120122F8B7031201DD
:1012C300222EB80312012267B803120122C0B90308
:1012D300120122BCCA03120122D2CA03120122DC68
:1012E300CA0312012232CB031201227FD802120158
:1012F300223CD90212012277D9021201229FD9027C
:1013030012012201DA021201224DDA02120122B87D
:10131300DA0212012234DB0212012230DC02120152
:1013230022B7DD021201223ADE021201229EDE0200
:10133300120122B5DE02120122ABDF02120122F7F3
:10134300DF02120122BEFB02120122D3FB021201B1
:101353002286FC02120122C6FC02120122DFFC02D9
:1013630012012212FD021201225FFD0212012293D9
:10137300FD02120122D5FD02120122CBFF0212014E
:101383002255E00212012272E102120122DFE10280
:10139300120122E0E20212012214E302120122CC22
:1013A300E302120122CFE3021201225CE4021201E2
:1013B30022AEE40212012241E502120122DCE5021F
:1013C30012012204E70212012264CC031201222D2E
:1013D300CC0312012290CC03120122D8FF02E06653
:1013E300701008A3E066700A08A3E066700408A3FF
:1013F300E06622C3E7960809E7960809E796080915
:10140300E79622C3E09608A3E09608A3E09608A314
:10141300E09622C008C3E096F50808A3E0964208C8
:1014230008A3E096420808A3E09645087001D3D0CC
:101433000822080808EAC0E0EBC0E086F0E7A4FA57
:10144300180986F0E7A42AFA180986F0E7A42AFA0D
:10145300180986F0E7A42AFA1986F0E7A4FBE5F059
:101463002AFA190886F0E7A42BFBE5F03AFA1908E3
:1014730086F0E7A42BFBE5F03AFA18180986F0E7A3
:10148300A4C5F02BFBE43AFA1908E7C5F0C6A42675
:10149300F6E5F03BFBE43AFA1886F0E7A4F6E5F04C
:1014A3000826F6E43B08F6E43A08F6D0E0FBD0E081
:1014B300FA22E4CFC0E0E4CEC0E0E4CDC0E0E4CC67
:1014C300C0E075F020E626F608E633F608E633F6C4
:1014D30008E633F6181818EC33FCED33FDEE33FE53
:1014E300EF33FFC3EC9709ED9709EE9709EF9719CF
:1014F3001919400FFFEC97FC09ED97FD09EE97FED4
:10150300191906D5F0BFECF709EDF709EEF709EF66
:10151300F7191919D0E0FCD0E0FDD0E0FED0E0FFD0
:10152300226016080808C6C313C618C613C618C611
:1015330013C618C613C6D5E0EA22700908080822A4
:101543006016181818C6C333C608C633C608C63390
:10155300C608C633C6D5E0EA22E627F60809E63709
:10156300F60809E637F60809E637F622E026F60814
:10157300A3E036F608A3E036F608A3E036F622E049
:1015830026F008A3E036F008A3E036F008A3E0361F
:10159300F022C3E697F60809E697F60809E697F6F8
:1015A3000809E697F622C3E096F008A3E096F00850
:1015B300A3E096F008A3E096F022E056F608A3E035
:1015C30056F608A3E056F608A3E056F622E056F0D6
:1015D30008A3E056F008A3E056F008A3E056F02273
:1015E300E0F608A3E0F608A3E0F608A3E0F622E697
:1015F300F008A3E6F008A3E6F008A3E6F022E0FA79
:10160300A3E0FBA3E0FCA3E0FD22E0F8A3E0F9A341
:10161300E0FAA3E0FB22E8F0A3E9F0A3EAF0A3EBEE
:10162300F022CAC0E0E6F0A308DAFAD0E0FA22CA50
:10163300C0E0E0A3C582CCC582C583CDC583F0A33A
:10164300C582CCC582C583CDC583DAE6D0E0CA2284
:10165300C3E498F8E499F91216948026C3E49AFA3D
:10166300E49BFBE920E7E9121694E498F8E499F97E
:1016730022C3E498F8E499F9121694E498F8E499EB
:10168300F9C3E49AFAE49BFB22EB20E7CFE920E7D6
:10169300E0B90010BB0008E88AF084F8AAF022E45D
:1016A300FBC8FA22EB70227B10C833C8C933C93395
:1016B3005007C39AC3DBF280069A50012ADBEAC8BB
:1016C30033F4C8C933F4C9FA2275F008E4C833C83F
:1016D300C933C933C99AC99B5004C92AC93BD5F038
:1016E300ECFBC833F4C8E4C9FA22600D08C6A2E7CC
:1016F30013C618C613C6D5E0F322600C08C6C3137D
:10170300C618C613C6D5E0F422700422600D18C6AD
:10171300C333C608C633C6D5E0F41822251810AF64
:1017230008F518400C15198008F51840021519D250
:10173300AF2200C0D0251810AF08F518500C0519BA
:101743008008F51850020519D2AFD0D0222518F51C
:101753008210AF08F518400C15198008F5184002DF
:101763001519D2AF851983222518F582E43519F5A9
:1017730083222518F8E43519F9222518FAE43519D6
:10178300FB222518FCE43519FD22E4732518C582D4
:10179300C0E0E51934FFC583C0E0E518C395822492
:1017A300F810AF0885831985821880088583198509
:1017B3008218D2AFCEF0A3E520F0A37808E608F0B4
:1017C300A3DEFAEFF0A3E58124FAF8E608F0A3E636
:1017D30008F0A3E608F0A30808E608F0A3E608F07B
:1017E300A315811581D0E0FED0E0F8158115811590
:1017F30081E8C0E0EEC0E0222518C582C0E0E5190B
:1018030034FFC583C0E0E518C3958224F910AF08FF
:101813008583198582188008858319858218D2AF3C
:10182300CEF0A3E520F0A37808E608F0A3DEFAEFF4
:10183300F0A3E58124FBF8E608F0A3E608F0A3088B
:1018430008E608F0A3E608F0A315811581D0E0FEB1
:10185300D0E0F815811581E8C0E0EEC0E0228519DB
:1018630083851882E0A3FEE0A3F5207808E0A3F6C1
:1018730008DFFAE0A3FFE0A3C0E0E0A3C0E0E0A339
:10188300C0E0E0A3C0E0E0A3C0E010AF0885821889
:101893008583198008858218858319D2AFD083D0B8
:1018A3008202011F851983851882E0A3FEE0A3F558
:1018B300207808E0A3F608DFFAE0A3FFE0A3C0E086
:1018C300E0A3C0E0E0A3C0E0E0A3C0E010AF088560
:1018D30082188583198008858218858319D2AFD031
:1018E30083D08222C0D02518C582C0E0E51934FF19
:1018F300C583C0E0E518C3958224F310AF08858340
:10190300198582188008858319858218D2AFC8F09B
:10191300A3E9F0A3EAF0A3EBF0A37908E709F0A3A6
:10192300D8FAECF0A3EDF0A3EEF0A3EFF0A3D0E030
:10193300F0A3D0E0F0A3D0E0F0A3E520F0A3E5F01E
:10194300F0A322851983851882E0C0E0A3E0F9A300
:10195300E0FAA3E0FBA37808E0F608A3DFFAE0FCD3
:10196300A3E0FDA3E0FEA3E0FFA3E0C0E0A3E0C08B
:10197300E0A3E0F5D0A3E0F520A3E0A3F5F010AFDA
:10198300088583198582188008858319858218D272
:10199300AFD082D083D0E0F8D0E0327404800674F4
:1019A3000280027401C0E0F404121750D0E0121652
:1019B30025227404800474028000CCC0E0EDC0E0F2
:1019C300E518C39CCCAD1950011D10AF068C188DC2
:1019D3001980068C188D19D2AF121632D0E0FDD0C3
:1019E300E0FC22D083D082E9C0E0E493A3C386F075
:1019F300C5F095F0F908E493A386F0C5F095F0706F
:101A03000BE493A3C3994005E9048002A3E475F0B2
:101A130002A42582F582E5F03583F583D0E0F9E46D
:101A230093A3C0E0E493C0E022D083D082ECC0E073
:101A3300EDC0E0E493A3FCE493A3FDED4C600D1231
:101A43001A78EC24FFFCED34FFFD80EFE493A3FC54
:101A5300E493A3FDED4C600D121AB7EC24FFFCEDEB
:101A630034FFFD80EFD0E0FDD0E0FCE493A3C0E0C1
:101A7300E493C0E022C0E0C3E49396087401939614
:101A830018400FE493667008087401936618700099
:101A93007019A3A3C3E49396087401939618A3A3A0
:101AA300400DD0E0D0E0D0E0021A68A3A3A3A3A323
:101AB300A3D0E022C0E0C0F088F0E4936670080889
:101AC30074019366187000A8F0A3A3700BD0F0D034
:0F1AD300E0D0E0D0E0021A68A3A3D0F0D0E02268
:101AE40074F61217FBEAFEEBFF8C088D09EE243422
:101AF400F8E43FF9E8FCE9FD121C16E0FAEE24379D
:101B0400F582E43FF583E0F88508F0A4C885F00A7F
:101B14008509F0A4250AF9EA28F8E439F97A257B3D
:101B240000121694EA8C828D83F0FA131313541F57
:101B3400F8EE28F8E43FF9E8245DF582E439F5830A
:101B4400E0C0E074075AF8D0E0B800028004C31380
:101B5400D8FCA2E05003EA8020EE2436F582E43F6C
:101B6400F583E0F5F0EA84A8F0EE28F8E43FF9E81C
:101B74002438F582E439F583E0F97F030218A77469
:101B8400F51217FBEAFEEBFFEE2434F582E43FF591
:101B940083E0C0E0121C16D0E0F08E828F83A3A3F2
:101BA400A3A3A3E0FAA3E0FB8E828F83A3A3A3A342
:101BB400A3A3A3E0C39AF508A3E09BF509EE247F51
:101BC400F8E43FF9880A890B8882F583E0640170A0
:101BD4002CEE2480F582E43FF583EA2401F8E43B0B
:101BE400F9E0687003A3E06970137CC07D06EEFA27
:101BF400EFFB120AC9850A82850B83E4F0AC08ADB9
:101C040009EEFAEFFB121AE4E9F91222517F0402F9
:101C140018A7EE2435F582E43FF5832274ED1217FC
:101C2400FB900369E064086005E06407702C906130
:101C3400C8E06026900397E0F874FF68601CE875BC
:101C4400F00DA4C8AAF02AF9749928FE740339FF88
:101C54008E828F83A3A3A3E070057900021DB9EEE1
:101C64002468F50EE43FF50F906060E0850E8285F0
:101C74000F83F07510FC751106750800750900E5F1
:101C8400D914F50AE5D95403F50B601FEE2483F546
:101C94000CE43FF50D7403650B6059E50A6017EE1B
:101CA4002467F582E43FF583E0700B793DEEFAEFAB
:101CB400FB120AF380A49006F7E064016023850C0C
:101CC40082850D83E060047A0480027A00E50AC309
:101CD4009AFA95E0FB1209798A088B09EA4509709A
:101CE40006120D93021C5E850C82850D83E0700440
:101CF4008A108B117A008014E5D9C0E0EAF8E51067
:101D040028F582E43511F583D0E0F00AEAC3950A98
:101D140040E6850C82850D83E0602874FC250AF575
:101D24000A78101219A2AC0AA90BEEFAEFFB120BF7
:101D3400A17402121735E9700AAA08AB0912127FBE
:101D4400021CAF7403650B6054850A0C750D007892
:101D54000C1219A2AC10AD11AA08AB09120B6574D0
:101D640002121735850E82850F83E0F8748068703F
:101D740005750C7F8002880CE50CF50D780D1219A1
:101D8400A6780B1219A6A90AAC08AD09900397E02E
:101D9400FA7B001207C3740212173580139003698B
:101DA400E06408700BAC10AD11EEFAEFFB120BD12E
:101DB400120D9F79017F0C0218A774F31217FB749C
:101DC400FC12171FEAFEEBFF8909A2AFE433F50802
:101DD400C2AFEE2463F50AE43FF50B8010AA0AAB08
:101DE4000B120B1D12127F9006C7E004F0850A82C5
:101DF400850B83E0F8A3E0F9E849602DE82402FAB2
:101E0400E439FBEA2402F50CE43BF50D780C1219D5
:101E1400A28A828B83E0FCA3E0F9EEFAEFFB120BBB
:101E2400117402121735E960B49006C7E0604D9052
:101E340006C8E0F89006C7E0C398500C7402650920
:101E4400703A9006C9E060348E828F83A3A3A3A363
:101E5400E0851882851983121E90740212176BE8AC
:101E6400121E909006C6E028F07402121785AA1874
:101E7400AB19790112081D9006C7E4F0E508A2E049
:101E840092AF74041217357F060218A7F0A3E4F08A
:101E94009006C7E0F8220000851A87851BC622C079
:101EA400E074EB1218E7A2AFE433F508C2AF759BF8
:101EB40000906182E0A2E05030E591A2E0502A75E2
:101EC40091FE7401651A7021122036120CBB122087
:101ED400241219B512218D7404121735E9640170A6
:101EE400057901120CF7121C20906182E0A2E550E2
:101EF4005DE591A2E550577591DF900369E06407B1
:101F04006005E06408702F1220367401651A703E73
:101F1400120CBB1220241219B512218D740412174D
:101F240035E9640170057901120CF77901EEFAEFD5
:101F3400FB121DBE8018E0640D701390038BE00447
:101F4400F064287002E4F07A00E0F9120DA59061C3
:101F540082E0A2E64003021FF9E591A2E6400302F3
:101F64001FF97591BF900369E064057008120CA312
:101F7400120CAF8003120CA9751A00120D15E9900A
:101F8400036AF07900120CF7120A2D7A017B009093
:101F94000368E0F912124F907803E064427056909F
:101FA40006FBE014F0704EC2AF121FB000781DD0D3
:101FB400E0F618D0E0F6E59F5407F87005750DFFBC
:101FC4008003750D7FC4C0E0781CE6F50A08E65569
:101FD4000DF50B740B780A1216FDD0E0250AF89063
:101FE4006270E0A2E740F8E8C333906272F0906256
:101FF40070E0D2E0F0906181E0A2E35009E5E9A24B
:10200400E3500375E9F7A3E0A2E75009E591A2E7DD
:10201400500375917FE508A2E092AF7F080219464C
:102024008E828F83E0F8A3E0C82416F582E438F5A5
:102034008322900397E0F875F00DA4C8AAF02AF95A
:10204400749928FE740339FF22C0E0C0D0C082C056
:1020540083906183E0A2E05009E5BFA2E0500375DC
:10206400BFFEE0A2E15009E5BFA2E1500375BFFD48
:10207400E0A2E25009E5BFA2E2500375BFFBE0A273
:10208400E35009E5BFA2E3500375BFF7E0A2E450B3
:1020940009E5BFA2E4500375BFEFE0A2E55009E5EE
:1020A400BFA2E5500375BFDFE0A2E65009E5BFA279
:1020B400E6500375BFBFD083D082D0D0D0E032C009
:1020C400E074F21218E7E5A7A2E4500FE5A1A2E438
:1020D400500953A7EF75A1EF122117E5A7A2E55008
:1020E4000CE5A1A2E5500653A7DF75A1DFE5A7A281
:1020F400E15009E5A1A2E1500375A1FDE5A7A2E223
:10210400500CE5A1A2E2500653A7FB75A1FB7F0189
:1021140002194674F81217FB751A01900369E064FA
:102124000670077A007B00120C8BA2AFE433FED258
:10213400AF90036FE0640170187A207B009003680D
:10214400E0F91213697A207B00900368E0F9121217
:1021540055906182E0D2E6F09006F8E0602185C6F1
:102164001B801690036EE064017008E5C654F844C1
:1021740005F5C653BEFC121E9C7401651A60E4EE9C
:10218400A2E092AF7F010218A774F11217FB8A082C
:102194008B098C0A8D0B908FAD78081215BD740FC6
:1021A40012176B780C1215E3908FAD780C1215BDD5
:1021B4007808790C1213F6908F9950107808790CDE
:1021C40012159578081214164014800E780C7908AC
:1021D400121595780C1214165004790180027900B6
:1021E4007F080218A774ED1217FB8A088B098C0A62
:1021F4008D0B908FAD78081215BD741312176B7880
:102204000C1215E3908FAD780C1215BD780C79087B
:102214001213F640117808790C121595AA08AB0927
:10222400AC0AAD0B80227510007511007512007593
:1022340013017810790C1215957810790812155C31
:10224400AA10AB11AC12AD137F0C0218A7C082C048
:1022540083E9906000F0D083D08222C0E074F2124F
:1022640018E7A2AFE433FED2AFC2C0E5D1A2E45076
:102274000675D10F1211C5EEA2E092AF7F010219CB
:1022840046C0E074F21218E7A2AFE433FED2AFE521
:1022940089A2E15003121123758900C2C5EEA2E0A0
:1022A40092AF7F01021946C0E074F21218E7A2AFA0
:1022B400E433FED2AFE58BA2E05003121123758BF9
:1022C40000C2E880D8C0E0C0D0E8C0E0E9C0E0A91E
:1022D400A8D2AFC2C7E9A2E7E433F8E9A2E792AF14
:1022E400D0E0F9D0E0F8D0D0D0E032C0E0C0D0E8FF
:1022F400C0E0E9C0E0EAC0E0C082C083A2AFE4333A
:10230400FAD2AF900EA2E0F8A3E0687008539AFBEB
:10231400A374018022C2E9900EA2E0F8740128F0AF
:10232400746228F582E4340EF583E0F5C1900EA2C0
:10233400E0C394404002E4F0EAA2E092AFD083D03C
:1023440082D0E0FAD0E0F9D0E0F8D0D0D0E032C0CA
:10235400E0C0D0E8C0E0E9C0E0C082C083A9A8D250
:10236400AF758900C2C5900EB27401F0E9A2E7E42A
:1023740033F8E9A2E792AFD2AFD083D08280C5C24E
:10238400AF0200002202011FFFFFFFFFFFFFFFFF5C
:10239400C082C083E99019BDF0D083D08202011FAE
:1023A40074F612178FE99002DCF090033BE0F50815
:1023B4007509007402780812170CAA08AB091212E6
:1023C400C79002DD122D579002DD123144606F90E8
:1023D400033BE075F003A4FAABF01212C79002FAC3
:1023E400122D579002FA123144700B9002DD123113
:1023F400151212CD80489002FA1240A97AFF7BFF91
:102404001210A57A0080198A0875090074027808E8
:1024140012170C123B5174FF122557E4F0A3F00A73
:1024240090033BE0F8EAC39840DD79051206BB90BF
:1024340002DCE0F91205A77A457B07120919023B71
:10244400F474F412178F8A088B09EB548060479058
:1024540002DCE0F91212378A0A8B0BAE0AAF0BEEDC
:102464004F602A8E828F83E064B0701A1206CDE921
:1024740060148E828F83A3A3A3A3E0F9EE2405FA4C
:10248400E43FFB12069DEEFAEFFB121225AA08E5C3
:10249400096480FB80047A007B000226A774F21290
:1024A400178F74FB12171FEAFEEBFFEE4F604574A3
:1024B4000312176BEEF0A3EFF0851882851983ECF5
:1024C400F0A3EDF0740212176BE9F0AA18AB19121D
:1024D40005A1E9F5087075741312176BE0F50AA3EA
:1024E400E0F50BE50A450B60638E828F83122AE0C8
:1024F400EE4F700575080280537A067B001212C7EE
:102504008A0C8B0DA80CA90DE84970057508138079
:102514003B88828983E4122557EEF0A3EF122673D9
:10252400E50AF0A3E50BF09002E012266C9002E0BD
:102534006017E0FCA3E08003EAFCEBFD8C828D8352
:1025440012266C70F38C828D8312376CA908740583
:10255400024329F0A312408BA32274F212178F892D
:1025640008890C750D007403780C12170C850C0A7D
:10257400850D0B9002DFF09002DD12357712266A8A
:10258400602E1212CD7900801D890C750D00740225
:10259400780C12170C9002DD123A108882F583A38E
:1025A400A3E4F0A3F00990033BE0F8E9C39840D911
:1025B40090033BE0FA850AF0A4CAA8F0850BF0A4C6
:1025C40028FB1212C78A0C8B0DAE0CAF0DEE4F70A8
:1025D4000302266090033BE0FC850AF0A4CCA8F03B
:1025E400850BF0A428FD790012120D7C0080318D3A
:1025F4000C750D007403780C12170C8A828B8312ED
:10260400266588828983E4F0122672A3A3F0A3F0DE
:102614000DEDC3950840D8EE250AFEEF350BFF0CEF
:1026240090033BE0F8ECC39850288C0C750D0074B3
:1026340002780C12170C9002DD122665E824025071
:102644000109FAE9FB8A828B83EEF0A3EFF07D00A7
:1026540080BFE5089002DFF079008002791302431D
:102664002C123A14F922A3A3123119EA4B22A31211
:10267400408BA3A3A32274F412178F7900EAA2E07B
:10268400501F75088B75098F78081219A279107C70
:10269400047D007ABF7B191206B57402121735E95E
:1026A400F980007F04021861C082C0839002E012A6
:1026B4003144601C88828983A3A3E06A7003A3E089
:1026C4006B8882898370E8A3A3A3A31231158004C5
:1026D4007A007B0002239D74F212178F74FD121787
:1026E4001FEAFEEBFF851882851983E4F0A3F074DA
:1026F4000212176B7401F0123141701412086B123C
:1027040012C79002E3122D57123141700302286D53
:10271400122E57EE2404F50AE43FF50B850A82F5E0
:1027240083E024FE603C24FC607424FE607E24FE6E
:1027340070030227BD24FE70030227CA24FE70031F
:102744000227D724FE70030227E424FE7003022725
:10275400F124FC700302281224FE700302282A02CA
:10276400286612086B9002E5EAF0A3EB12287912AE
:10277400024DE960030228669002E51219B98E82BF
:102784008F83A3A3A3A3A31240A9850882850983E9
:102794001231151206857402121735022866AC1818
:1027A400AD19EEFAEFFB1206D3022835AC18AD19B9
:1027B400EEFAEFFB1206D98078AC18AD19EEFAEFF9
:1027C400FB1206DF806BAC18AD19EEFAEFFB1206B4
:1027D400E5805EAC18AD19EEFAEFFB1206EB805102
:1027E400AC18AD19EEFAEFFB1206F1804474021234
:1027F4001775880C890D780C1219A27402121785AA
:10280400EEFAEFFB1206F774021217358023AC18A8
:10281400AD19EEFAEFFB1206FDE9F8701674021218
:10282400176BE4F0803CAC18AD19EEFAEFFB12071D
:1028340003E9F8E8602C8E828F83A3E0641460229D
:10284400850A82850B83E09002E5F085188285195C
:10285400831231159002E6122D57E8A3122879123B
:102864000247EEFAEFFB12065B740212176BE0F9F3
:102874007403024329F07CE57D028508828509837F
:102884001231192274E812178F74FA12171F740484
:1028940012176BECF0A3EDF08A128B13EA2405F502
:1028A4000EE43513F50FEA2402F510E43513F5119F
:1028B400851082F5831231151203738A0A8B0B7506
:1028C40008007C037D0079007AE57B0212120DE595
:1028D4000E2402F516E4350FF517740212177588E5
:1028E4000C890D780C1219A2850E82850F83A3A37F
:1028F400A3A3E0F50C750D00780C1219A2E50E24C3
:1029040005F50CE4350FF50D780C1219A285168225
:1029140085178312341C1205BF74061217358A0CEE
:102924008B0DE50C450D7003022AA98020851882C1
:10293400851983E088828983F005088518828519C2
:1029440083A3E0C0E0122AEAD0E0F00508E50A24F7
:10295400FBFAE50B34FFFBC3E5089AE49B40030252
:102964002AA97E007F00851282851383A3A3A3A3D3
:10297400E0F50978091219A6E4F514F5157814128E
:1029840019A27514E275150278141219A29002E3C3
:102994001219B9740912176B1219B9E50A24F9F955
:1029A400AC0CAD0D85108285118312311512072DE3
:1029B4007409121735E96003022A4A850E82850FCD
:1029C40083A3A3A3A3A3A3A3E0F89002E2E0687007
:1029D40075E0F5148E1578141219A21240A6850E0E
:1029E40082850F83A3A3A3A3A3A3A3A312311512C8
:1029F40012077402121735E9604C9002E612314452
:102A0400703BE4F51478141219A27CFF7DFF79075A
:102A140085108285118312311512069774021217DC
:102A24003512314A7017850E82850F831242437422
:102A34000412176B123B0412344D022ADD850C82FA
:102A4400850D83122AE0A818A91988148915781409
:102A54001219A2740412176B1219B98516828517FC
:102A640083122D4D1205CB74041217358A0C8B0D6D
:102A7400EE4F7003022926122AEAEE122AF51234C6
:102A840003EF122AF5F8A3E03400F9E50C450D60D4
:102A9400030229318882898374FFF00508122AEA27
:102AA40074FFF00508E508601A1313543F122D5DF6
:102AB400120259E960099002E612311512127F7967
:102AC400008016850E82850F831242437404121708
:102AD4006B123B0412376C790A0233D6A3A3A3A367
:102AE400E0FEA3E0FF22A8089002E6E028123403E7
:102AF40022F00508089002E6E0282274E812178FF5
:102B040074FA12171F740212176B122D57740412E1
:102B1400176BECF0A3EDF0740212176BE0240512AE
:102B240033ECE0F50CA3E0F50D740212176BE0240E
:102B340002F510A3E03400F511851082F5831231FB
:102B440015120373750800750900EA24FCFEEB34C2
:102B5400FFFF8008050CE50C7002050DA808C3EE04
:102B640098EF94005003022D09A818A919880E891A
:102B74000F780E1219A2851482851583A3A3A3A32B
:102B84001240AD1219A2E5142405F50EE43515F52D
:102B94000F780E1219A2851482851583122D4B12FB
:102BA40005BF74061217358A0E8B0FEA450F7003A2
:102BB400022D09EA2404F516E4350FF5178516826B
:102BC400F583E0F50CA3E0F50D85188285198312D1
:102BD40040A98A828B83A3A3A3E0F985108285117F
:102BE400831231151205ADE9F5096003022D09744C
:102BF4000212176B123413F50978091219A6E4F5B9
:102C040012F51378121219A27512E27513027812D2
:102C14001219A29002E31219B9740712176B121950
:102C2400B9EEF9AC0EAD0F85108285118312311502
:102C340012072D7409121735E9F5096003022D09ED
:102C4400E508703FE4F50EF50F780E1219A27CFF2B
:102C54007DFF79098510828511831231151206973B
:102C64007402121735123439700D740412176B1272
:102C74002D407911022D3D9002E2E024029002E6FB
:102C8400F080149002E6E0FA9002E2E07900240277
:102C94005001096A497072A8089002E2E0FAE82A31
:102CA400FAE43400FBEE9AEF9B405A8516828517AE
:102CB40083E0C0E09002E7122AEFD0E0F005088537
:102CC4001682851783A3E0C0E0089002E7122AEF7A
:102CD400D0E0F005089002E21240AD1219A21240B1
:102CE400A6A8081233E01211F574021217359002E7
:102CF400E2E02508F50874FF650C700474FF650DA7
:102D04006003022B58E508601F9002E6E0F5F0E549
:102D14000884122D5D12025FE960099002E7123106
:102D24001512127F79008011E509700375090A7480
:102D34000412176B122D40A9090233D612357BE514
:102D44000CF0A3E50DF022A3A3124338AA0CAB0D9B
:102D540022A3A3EAF0A3EBF0229002E5F07CE57D48
:102D6400028510828511831231192274EC12178F97
:102D740074FC12171F12387C740212178512310F5B
:102D84001205C58A0C8B0DEA450D7003022E4712FD
:102D94002E57A818A9198810891178101219A27C25
:102DA400FF7DFF790B850882850983123115120690
:102DB400977402121735122F4D700C850A82850BF9
:102DC4008312344A022E548E828F83A3A3A3A3E0DA
:102DD400F51278121219A6E4F512F51378121219E5
:102DE400A27512E575130278121219A2781012193D
:102DF400A2740912176B1219B9740912176BE0F94E
:102E0400AC0CAD0D85088285098312311512072D8E
:102E14007409121735E9FE70157CE57D0285088278
:102E2400850983123115120265E970098020741630
:102E34006E70027E009002E612311512127FEE705F
:102E440004800B7E01850A82850B83123769EEF9B3
:102E540002377EEE2402F508E43FF5092274EC12F1
:102E6400178F74FC12171FEAFEEBFF8C0E8D0FEE0A
:102E74002405F508E43FF5097402121785850882D4
:102E84008509831231151205C58A0C8B0DEA450D8F
:102E94007003022F3DEE2402F50AE43FF50BA81857
:102EA400A9198810891178101219A27CFF7DFF7965
:102EB4000D12310F1206977402121735122F4D702E
:102EC4000B85088285098312344A807A8E828F8327
:102ED400A3A3A3A3E0F51278121219A6850882858C
:102EE4000983A3A31219B97512E575130278121296
:102EF40019A278101219A2740912176B1219B97455
:102F04000912176BE0F912310B12072D740912170D
:102F140035E9FE700F7CE57D0212310F12026BE978
:102F24007009802074166E70027E009002E61231E1
:102F34001512127FEE7004800B7E018508828509CC
:102F440083123769EEF902377E123154F510A3E08B
:102F5400F511EA45112274E812178F74FE12171F37
:102F64008A168B178C148D15EA2405F50CE4351795
:102F7400F50DEA2402F50EE43517F50F850E82F5FA
:102F8400831231151203738A088B09750B007C03B5
:102F94007D0079007AE57B0212120D750A00E508BE
:102FA40014F5100424FFF508E50934FFF5098054ED
:102FB4009002E5E0FA9002E2E0F8EA28F8E434004E
:102FC400F9E50898E50999500D9002E5E0F8E51057
:102FD400C3989002E2F0E0F512751300781212190A
:102FE400A21240A69002E6E02AFAA3E03400FB1203
:102FF40011F574021217359002E2E0F89002E5E050
:1030040028F0050A850C82850D83A3A3123A20407B
:10301400030230F09002E5E0C39508E4950940030B
:103024000230F0AE0AEE2EFEE433FF12312FAC185C
:10303400AD191240C1E439FB1205C58A128B13ACD9
:1030440012AD13EC4D701B750B0112311F12376D4D
:103054009002E612266C600312127FA90B7402021E
:1030640033D8851682851783A3A3A3A3E0F50B7831
:103074000B1219A6E4F512F51378121219A275129F
:10308400E275130278121219A29002E31219B974AC
:103094000712176B1219B9A910850E82850F8312B6
:1030A400311512072D7409121735E9F50B709B9031
:1030B40002E61231446003022FB4E4F512F51378EA
:1030C400121219A27CFF7DFF790F850E82850F8372
:1030D400123115120697740212173512314A600321
:1030E400022FB412311F12344E0230617CE57D028E
:1030F400850E82850F83123115120271E960030275
:1031040030547900023061AC0CAD0D850A82850B18
:103114008312311922E0FAA3E0FB2212312FE0FAE4
:10312400A3E0F9EA85148285158322850C82850D36
:1031340083E02EF8A3E03FF988828983229002E39A
:10314400124247E84922123154F8A3E0F9E849222F
:103154009002E6EAF0A3EBF09002E6E02274E812B3
:10316400178F74FA12171F740412176B122D578CD1
:10317400168D17740412176BE02405F50EA3E034C2
:1031840000F50F740412176BE024021233EC1231B1
:10319400151203738A0A8B0B7F007E00A818A919E5
:1031A4008808890978081219A2850E82850F83A3DD
:1031B400A3A3A3E0F5088E0978081219A2E50E244A
:1031C40005F508E4350FF50978081219A2850E8271
:1031D400850F83A3A312341C1205BF74061217357E
:1031E4008A0C8B0D802912340DF00F12340DF00F60
:1031F4009002E21237581219A21240A6EFF81233C5
:10320400E01211F574021217359002E2E02FFFE587
:103214000C450D700302329C85188285198312387F
:103224008EA3A3A3E0F985148285158312311512A8
:1032340005ADE9FEE50C2404F510E4350DF511EEB9
:103244007050740412176B123413F50878081219AD
:10325400A6E4F508F50978081219A27508E27509BB
:103264000278081219A29002E31219B9740712170E
:103274006B1219B9E50A24FAF9AC0CAD0D85148268
:1032840085158312311512072D7409121735E9FEBD
:10329400603912342912376CEF70030233C3900281
:1032A400E6E0F5F0EF849002E5F07CE57D0285141C
:1032B40082851583123115120277E960099002E7BD
:1032C40012311512127F79000233D68F08EF703B4A
:1032D400E4F512F51378121219A27CFF7DFF79111F
:1032E40085148285158312311512069774021217FC
:1032F40035123439700912342912344D0233D69000
:1033040002E2E024049002E6F080359002E2E0F864
:103314009002E6E0FAE82404FCE43400FDEC6A4D93
:1033240060030232A2E50A24FAFAE50B34FFFBE556
:103334000828F8E43400F9EA98EB9950030232A221
:10334400851082851183E0C0E09002E7E02FF8A3A6
:10335400E034008882F583D0E0F00F851082851177
:1033640083A3E0C0E01233FAD0E0F00F7402121726
:10337400758808890978081219A2740212176B1249
:1033840019B9850E82850F83122D4B1205CB740457
:103394001217358A0C8B0DEA450D70030231EA745D
:1033A4000212176BE0C0E01233FAD0E0F00F74029F
:1033B40012176BA3E0C0E01233FAD0E00231F2EE50
:1033C40070027E0A850E82850F8312342F12376CA9
:1033D400EEF974061217357F100218619002E7E0C7
:1033E40028FAA3E03400FB22F514A3E03400F51519
:1033F400851482F583221233FE229002E7E02FFA2D
:10340400A3E034008A82F583221233FE74FF221271
:10341400357BA3A3A3A3E022124338850E82850F34
:103424008312311922851082851183124247851631
:1034340082851783229002E7EAF0A3EBF09002E77B
:10344400124247E84922123772E8F0A3E9F07911F1
:103454002274EA12178F74FE12171F8A088B098CC4
:10346400128D13EA2405FEE43509FFAC18AD198E5C
:10347400828F831231151205C58A0C8B0DEE24063A
:10348400F50EE43FF50FEA450D700302354DE508EE
:103494002402F50AE43509F50B8A828B83A3A3A3DE
:1034A400E0A2E55028851882851983123115120788
:1034B400218A108B11EA45116020791212310B8593
:1034C400108285118312178DE9F50C707F850E82A9
:1034D400850F83E0600979528011750C0E806D852B
:1034E4000882850983A3A3A3A3E0F9E4F508F509F9
:1034F40078081219A28E828F83A3A3E0F5087808B6
:103504001219A28E828F83A3A3A31219B98E828F5C
:10351400831240A912310F1207337406121735E9CA
:10352400F50C7011850E82850F83E0702D12310F1A
:1035340012027D80257416650C7011750C007418C8
:1035440012176B123577E48010750C0112423F8517
:103554001282851383E8F0A3E9F0850E82850F8338
:10356400E0600479008002A90C74021217357F0E02
:1035740002186112357B22E0F8A3E0F583888222E9
:1035840074EC12178F74F712171F8A0A8B0B8C10A6
:103594008D11EA2405FEE4350BFF750C00AC18AD63
:1035A400198E828F831231151205C58A088B09EA98
:1035B40045097003023743E50A2402F50A5002055F
:1035C4000B8A828B83A3A3A3E0A2E5502F851882E4
:1035D4008519831231151207218A0C8B0DEA450DCA
:1035E400604F7912AC08AD0912310F850C82850D3C
:1035F4008312178DE9F50C6003023746850A82852C
:103604000B83E0F508A3E0F509AA08FB120715EA05
:103614004B70197AFF7BFF120715EA4B70030237D0
:10362400398A828B83E508F0A3E509F075080080E8
:1036340008750C0E02374605089002DFE0F8E5082D
:10364400C398400302373985080E750F0074037858
:103654000E12170C8A828B83A3A3E0250EF8A3E035
:10366400350F123B0D70D08E828F83123761122D6D
:10367400578E828F83A3A3123761122D55EE240433
:10368400F508E43FF509850882F583E0888289839B
:10369400A3A3A3A3F0A3E4F0EE2405F50EE43FF501
:1036A4000F850E82F583123761A3A3A3A3122D55B0
:1036B40075120775130078121219A2EEFCEFFD744F
:1036C4000412177D1211F57402121735E4F51278FD
:1036D400121219A2850882850983E0FC7D007917FE
:1036E40012310F1206977402121735740712176BF2
:1036F400122D57740712176BE0FA4B603D85088250
:103704008509831237581219A2850E82850F8312F8
:1037140040A91211F574021217357402121785129A
:10372400310F120283E96026740712176B123115E8
:1037340012127F8019750C098008750C11800375AD
:103744000C0112423F85108285118312376CA90C3B
:1037540074098028E0F508750900780822123119E7
:103764008882898322123772E8F0A3E9F022E0F814
:10377400A3E0F9850E82850F832274041217357F26
:103784000C02186174EC12178F12387C751000EE5D
:103794002402F50CE43FF50D850C82F583123115F6
:1037A4001207158A088B09EA4509700302386085F7
:1037B4000A82850B83E064016003023855AC08ADCE
:1037C40009AA0AAB0B120709E9606E85088285090C
:1037D40083122AE2EE2406F50AE43FF50B8E828F6B
:1037E40083A3A31219B98E828F83A3A3A3A312194F
:1037F400B9850A82850B831219B979188E828F8351
:1038040012388E1231151207337406121735E9F87F
:10381400741668700B850A82850B83E4F0A3801408
:10382400E860128E828F83123115850E82850F8394
:10383400EAF0A3EBF088108018780E1219A2AC08F5
:10384400AD09EEFAEFFB12070F7402121735E9F512
:1038540010AA08AB0912071BE510700E850C8285AF
:103864000D831231151202898009741665107003D4
:10387400751000A910023783EAFEEBFF8C0E8D0F42
:10388400EE2405F50AE43FF50B22124338850C8239
:10389400850D832274EA12178F7508007509007E5E
:1038A400007F00750A00EC2402F510E43DF5118058
:1038B40035EC65087003ED6509600302394D8882B3
:1038C4008983A3A3E06A7003A3E06B707C88828978
:1038D40083A3A3A3A3124243EE28FEEF39FFEA28F1
:1038E400FAEB39FB050A123A1D503A850A0C750D9C
:1038F400007403780C12170C851082851183123A18
:1039040010123B0D601FE508450970A58C088D0950
:1039140088828983122AE088828983A3A3E02EFA0D
:10392400A3E03F80BEE50AC394025003023A0B753C
:103934000800750900EE4F6010EEFAEFFB121279E1
:103944008A0E8B0FEA450F70057900023A0D750B4C
:10395400000239E0850B0C750D007403780C121706
:103964000C851082851183E0250CF50CA3E0350D40
:10397400F50DE50C2406F514E4350DF515851482D2
:10398400F583123B126042E50C2404F512E4350D74
:10399400F513851282F5831219B9E50E2508FAE5A7
:1039A4000F3509FB1211F574021217358512828541
:1039B4001383E02508F508A3E03509F50985148289
:1039C40085158312311512127FE50B600D7C087D7D
:1039D400007900AA0CAB0D12120D050BE50BC39573
:1039E4000A50030239588510828511831242438894
:1039F400828983A3A3A3A3A3A3E50EF0A3E50F12D7
:103A04002673EEF0A3EFF07901023572123A142214
:103A1400E0250CF8A3E0350D229002DFE0F8E50A7A
:103A2400C3982274F012178F8A0E8B0F8C0A8D0B99
:103A3400750D00750C0080507916EE2406F508E427
:103A44003FF5098E828F83A3A31219B98E828F83C7
:103A5400A3A3A3A31219B98508828509831219B9EE
:103A6400850E82850F83A3A31231151207337406C2
:103A7400121735E9F50D7416650D706C850882858D
:103A84000983E4F0A3F0050C9002DFE0F8E50CC331
:103A9400985066AA0C8A08750900740378081217EE
:103AA4000C850A82850B83A3A3123B5CE8FEE9FF25
:103AB4008E828F83123B126040EA2401F508E434BD
:103AC40000F5099002DFE065087002E509601488DA
:103AD400828983A3A3A3A3A3A3A3A3123144600352
:103AE400023A3C7918023A3EE9609B12423F741054
:103AF40012176B123B0412376CA90D7F0802186170
:103B0400E0FAA3E0F5838A8222F98882898312434A
:103B140038EC4D2274F612178F7C0080010C900350
:103B24003BE0F8ECC398501E8C08750900740278C9
:103B34000812170C123B51E06A7003A3E06B70DDAE
:103B4400E8FAE9FB80047A007B00023BF49002DD92
:103B5400123B5C8882898322E02508F8A3E03509BA
:103B6400F92274F212178F8A088B09750A008027CC
:103B74008E828F83A3A3A3A312266A600312127FEB
:103B84007C087D007900EEFAEFFB12120D8E828F15
:103B940083E4F0A3F0050A123A1D5027850A0C7538
:103BA4000D007403780C12170C850882850983A311
:103BB400A3E0250CFEA3E0350DFF8E828F83123126
:103BC4004470AD85088285098374FFF0A3F0024335
:103BD4002C74F612178F1206C78A828B83E58245EE
:103BE4008370067A007B008007A3A3A3A312311578
:103BF4007F0202186174F412178F89088C828D83F6
:103C0400E06402703C1241E2FEA3E0F9EEF87402B3
:103C14006870037429697029750A02750B00780AA3
:103C24001219A2741012176B1219B9741012176BAF
:103C34001219B9A9081210AB7406121735E9F980E4
:103C44000279010226A774E812178F74FB12171F5A
:103C5400E9851882851983F08A168B17ECFEEDFF2F
:103C64007510008E828F83A3A3A3E0A2E4502D7469
:103C74001D12176B1231151207218A828B83E5827C
:103C840045837003024081790AEEFCEFFDAA16AB6E
:103C94001712178DE9F5106003024084741F121780
:103CA4006BE0F508A3E0F509742112176BE0F50A3F
:103CB400A3E0F50B742312176BE0F50EA3E0F50FE8
:103CC4008E828F83E064026003024022A312424387
:103CD400850882850983A3858212858313EE2406D1
:103CE400F50CE43FF50D888289831240C1F514E494
:103CF40039F5157814121A2C010000280128243DE6
:103D040007000228E93D0328573D0029183F0129EF
:103D1400433F0229E43E0329183F0429BC3F2240C3
:103D2400E50E450F600302401D850C82850D83124C
:103D34004243E8FAE9FB8A828B83E0850A82850B99
:103D4400831240CC1219A28A828B83A3E0FCA3E0E5
:103D5400023FA6E50E450F600302401D850A8285D9
:103D64000B837401F01240B6850882850983F07CC8
:103D7400007D008E828F83A3A3A3A3E02401FAA372
:103D8400E03400FB1205C5EA4B60408A828B83E075
:103D94002402F8850A82850B83E028F0EA2404F8DB
:103DA400E43BF988828983E085128285138312407B
:103DB400DA1240CC1219A28A828B83A31240A9E59D
:103DC400082403FAE43509FB023FAB850A82850B1C
:103DD40083E02404F07C047D007900AA12AB131262
:103DE400120D024084E50E450F600302401D12408F
:103DF400B6FEA3E0FF850A82850B837404F0EE858A
:103E04000882850983F0EF851282851383F0740399
:103E1400121785EEFAEFFB1205C58A0C8B0DEA45E5
:103E24000D7003023EC78A828B83A3A3122AE07417
:103E340001121775880E890F780E1219A2740512D3
:103E4400176B1219B97CFF7DFF1205CB740412178E
:103E5400358B0FEA450F7033850C82850D83124034
:103E6400AD1219A2850C82850D83A31219B97C02A7
:103E74007D007A1D7B901203617404121735E9707A
:103E84000A740112176B74FFF0A3F08E828F83E023
:103E940064027039750C02750D00780C1219A28E2B
:103EA400828F83A31240A9E5082404FAE43509FBB0
:103EB4001211F57402121735850A82850B83E024EA
:103EC400028009740112176BEEF0A3EFF074011273
:103ED400176B12409B740112176B12409202401729
:103EE400E50E450F600302401D850C82850D83128B
:103EF4004331AA16AB171210B1850A82850B83745D
:103F040002F0850882850983EAF08512828513838D
:103F1400EB02401AE50E450F600302401D1240B645
:103F2400F8A3E0F9850A82850B837402F0E885081A
:103F340082850983F0E985128285138302401A85FC
:103F44000C82850D831231151211EFEAFAF8C3952C
:103F54000EE4950F405CE8650E450F70047A00800E
:103F640021851882851983E0FCE50E2CFCE4350FCD
:103F7400FDC3EC98ED94005003E08005E50ECAC340
:103F84009AFAEA850A82850B83F08A0A750B00780F
:103F94000A1219A2850C82850D83E0250EFCA3E08C
:103FA400350FFDAA08AB091211F574021217350278
:103FB4004084751007024084E50E450F705B850C44
:103FC40082850D83124243850A82850B837407F030
:103FD4008882898312409312408BE0851282851374
:103FE40083F0E82402FAE439FB8A828B8312409B33
:103FF4008A828B83124092A3A31226721240A0F0ED
:10400400E82405F8500109888289831240A0A3128C
:1040140040DAA3A3A3A3F0806775100B8062741D1C
:1040240012176B1231151206C78A828B83E58245FB
:1040340083604A124243880C890DE8450D603E7442
:104044002512176BE0F51078101219A6780E1219C4
:10405400A2780A1219A278081219A2740712176B0F
:10406400E0F9EEFCEFFDAA16AB17850C82850D83F3
:1040740012178D7407121735E9F510800375100EA9
:10408400A91074050233D8F088828983A322A3E09F
:10409400850882850983221240E1F0221240E1A3BF
:1040A400A3229002E312433822E0F50E750F007844
:1040B4000E22850C82850D8312357BE022E0FAA363
:1040C400E0F8E4C8F9EA2822F08A828B83E0F50A52
:1040D400750B00780A2212408B1240E122E0850819
:1040E40082850983A3A32274EE12178F74FE12171C
:1040F4001F8A088B09ECFEEDFF890AAC18AD19EE96
:10410400FAEFFB1205C58A0C8B0DEA450D7003020C
:1041140041D38518828519831231151206C78A8204
:104124008B83E582458370030241CEA3A3124243ED
:10413400880E890FE8450F70030241CE74141217DC
:104144006BE0F510A3E0F511E50AF50B780B1219F5
:10415400A6741912176B1219B978101219A2741BCC
:1041640012176BE0F9AC0CAD0DAA08AB09850E82F1
:10417400850F8312178D7405121735E9F50B7052EC
:1041840074FE650A604C850C82850D83E0640270C0
:10419400411241E2FAA3E0F9EAF874026870037488
:1041A4002969702E8510828511831240C1F50CE4B3
:1041B40039F50D780C1219A2EEFCEFFDAA08AB0933
:1041C40012074B74021217358008750B0E800375A5
:1041D4000B01A90B74021217357F0A021861A3128E
:1041E400424788828983E02274F612178F74FE1284
:1041F400171F740C12176B124243E8851882851935
:1042040083F0740112176BE9F0E4F508F5097808F6
:104214001219A275080278081219A27404121775EB
:104224008808890978081219A279FE1207337406DE
:104234001217357402121735023BF48E828F8312E3
:10424400424722E0F8A3E0F92274F712178FEAFE3E
:10425400EBFF89089002FA1240A91210B1EA540245
:10426400600BA908EEFAEFFB1205B9800279017F11
:104274000102186174F212178F74FE12171FEAFEFE
:10428400EBFF890A7401650A60147402650A60030D
:104294000243277901120937E96003024327EEFA42
:1042A400EFFB120715EA4B600312071BA818A919A4
:1042B4008808890978081219A27508027509007816
:1042C400081219A275081975099078081219A27CA8
:1042D400FF7DFF7A017B001205BF7406121735803B
:1042E40038850882850983A3A3A3A3A3A31243311A
:1042F400EEFAEFFB1210A5E4F50CF50D780C12198B
:10430400A2740212176B1219B97CFF7DFFAA08ABC5
:10431400091205CB74041217358A088B09E5084580
:104324000970BE74021217357F0602186112357BBC
:1043340012433822E0FCA3E0FD2274F412178F8AA2
:10434400088B09ECFEEDFF9019BDE0F4604B7A098F
:104354007B0012121FEA4B60408A828B8374B1F097
:10436400A3E41243A0F08A828B83A3A3E508F0A3FD
:10437400E5091243A0A3EEF0A3EFF0740C12176B3F
:104384001242438A828B83A3A3A3A3A3A3A31237BA
:104394006C9019BDE0F912122B0226A7F08A828BC9
:1043A40083A3A3A3A322C082C0839061907404F06A
:1043B400A37448F0A3E4F09061807440F09061BC71
:1043C4007407F09061877469F09061B67416F0799F
:1043D40000120A337902120A3990238CE493F460B0
:1043E40006E493F9120A0F7905120D87024812C0E8
:1043F40082C083E9540FF9906185E0696012E5C6D3
:1044040054B84441F5C6E59E5447644170F8E9F058
:1044140053C6B8E59E544770FA02481274F712174F
:104424008FAEA853A87E120A1BC2BA539AFEC28941
:10443400759B00C2C2120A2175A91175B905120A29
:1044440027D2BA439A0174805E42A8024ED5C08234
:10445400C083906181E4F0A3801D75E9007591002B
:1044640075BF0002011FC082C083906181E4F0A384
:1044740074C0F0A3E48002F0A3F0024812C082C02A
:104484008374F812171F90036B1259597003024575
:104494005490036BE0544060177908AA18AB1912C2
:1044A4000B3BAA18AB191207AB90036BE054BFF097
:1044B400E054806010790C7A1C7B07120B3B90034C
:1044C4006BE0547FF0E0A2E0500F7900120A33123F
:1044D40007B190036BE054FEF0E05402600F7901E1
:1044E400120A331207B190036BE054FDF0E0540458
:1044F400600F7900120A391207B790036BE054FB7E
:10450400F0E05408600F7901120A391207B79003DA
:104514006BE054F7F0E05410600F7902120A39127C
:1045240007B790036BE054EFF0E05420600F790379
:10453400120A391207B790036BE054DFF0A3E0547A
:1045440001600D120A451207BD90036CE054FEF0A1
:104554007408121735024812C082C083E96005143A
:10456400602A804F90619A7433F0A37455F090617F
:10457400A0743AF09006F6E064017009C2919003C9
:104584006D7467802D90036D7461802690619A74B8
:104594003FF0A3745AF09061A0747FF09006F6E0A7
:1045A40064017009D29190036D7471800590036D5C
:1045B400746AF0024812C082C083E9600B14600D73
:1045C40014601714600C8020902390801590239120
:1045D40080109006F6E064017005902392800390A9
:1045E4002393E493906186F002481274EE12178FBD
:1045F40074F412171F908FEDAC18AD1974041216D1
:104604003290239093F46003024707907808E0C344
:10461400940250030246EB908F6B74041217857456
:10462400081216327F00750CFF750DFF750EFF7EA4
:1046340000EFFC800F74086E606D74096E6068741E
:104644000A6E60638E087509007402780812170CEC
:104654001247111215E3A909E50AC9F8881074185C
:104664007808121524E5104508FAE9FBEC2CF8E467
:1046740033F9740412176BE58228F582E583391245
:104684004DABC3E89AE99B4008E8C39AF8E99B80DC
:1046940006EAC398F8EB99F9C3E8950CE9950D502F
:1046A40006880C890D8E0E0EEEC39413408774FF9A
:1046B400650C700474FF650D6023850E0874027820
:1046C4000812170C1247111215E3851882851983F5
:1046D400E5822CF582E43583F583E508F00FEFC31A
:1046E4009404500302462A750801750900780812DB
:1046F40019A274021217857AE47B081210FF74025F
:10470400121735740C1217357F0A02186174482584
:1047140008F58274783509F583780822C082C0834D
:10472400906186E0F8902393E49368700990239253
:10473400E493906186F09061AE7468F0A3746AF0BB
:1047440090624574FBF0A304F053F4FD43FE029021
:1047540006F67401F09061A0E0643A700479008078
:10476400027901120A33024812C082C0839006D42F
:10477400E0640170139006DAE0F87401686019E8E7
:104784007006A3E0640160109006EBE06401700C15
:104794009006F1E064017004790C8002790002480B
:1047A40012124D9C940622E0C4333354C0222414C4
:1047B400F582E438F58322C082C0839006DE742536
:1047C400F09006DC7401F0A3E4F07A01FB120D030F
:1047D400124806241AF582E438F5837469F0A37448
:1047E4000AF09006DBE0640170169006DAE07010BF
:1047F4007901120D63120D33120D5D7900120D6FE4
:10480400800C9006CA124B7B22E0F9122251D0830D
:10481400D08202011FC082C08374FA12171F90064F
:10482400D3E064017008120A519006D3E4F075E1F4
:10483400F11248062415F582E438F5837401F090EA
:1048440006D5E064017046908F79AC18AD197406F2
:1048540012163275D90D9006CC1247AB4403F5D924
:104864007A00EAF874CD1252A634061247A540F233
:104874007A00EAF8851882851983E5821252A635F2
:10488400831247A540EC75E1957901800279001205
:104894000D099019E11248F974E3F0A3740BF0A325
:1048A4001248F91248F9124A4E74E9F0A3740B1233
:1048B4004A639006CCE0F97ACD7B06120CE59006AB
:1048C400DEE0F91222517901120D0F908FF11216C8
:1048D40001120D27908FA1121601120CF17900120A
:1048E4000D7B1248061247B27416F09003697405E2
:1048F400F00402455674DDF0A3740BF0A32274F7A0
:1049040012178F8908A8081253B39006E3E0F97AC6
:10491400E47B06120CE59006F1E070257900120D97
:1049240045EE2406FAEF3401FBEE240CF582EF3455
:1049340001F583E07004790080027901120CEB80A8
:10494400057901120D4575E1F175D9239006E3123D
:1049540047AB4405F5D97A00EAF874E41252A63458
:10496400061247A540F275D90075D90075D90075AE
:10497400D90075D90075D9007A00124A3B24221255
:104984004D9240F67A00124A3B2426F582E439120D
:104994004CDCEAC3940340EEEE242B124D87242C06
:1049A400124D87242D124D87242E124D87242F1249
:1049B4004D872430124D872431124D872432124DF5
:1049C400872433124D7B124A3B245DF582E439126D
:1049D4004E0940F2EE2437124EA7541FF8EE242A53
:1049E400124EA7C43354E048F5D975E1959019E106
:1049F40074ADF0A3740BF0A374B3F0A3740B124A58
:104A04004574B9F0A3740B124A639006F0E0F912EE
:104A14002251908FF1121601120D27908FA11216B8
:104A240001120CF190600DE4F07901120D7B9003FA
:104A3400697406F0024ED5EAF8EE28F8E43FF9E886
:104A440022F0A3124A4E124A4E22124A522274A74C
:104A5400F0A3740BF0A374A7F0A3740BF0A32212B9
:104A64004A6722F09019EF124A73A3124A73221272
:104A74004A5274A7F0A3740BF02274EC12178F90AF
:104A840006E11253CA78101215E39006F2E0FAF820
:104A940075F00DA4C8ACF02C125563EE2EFEEF3366
:104AA400FF8E0CF50D750E00750F0085100885112D
:104AB4000985120A85130B908FC5780812156F7833
:104AC4000812199E85100885110985120A85130B91
:104AD4007808790C12155C7810790C1214B5E4F589
:104AE4000EF50F7808790C1215958A0C750D007463
:104AF40003780C12170C7808790C12155C908FADA2
:104B040078081215BDAA08AB09AC0AAD0B1221E94D
:104B140074041217358A088B09A808A909C3EE98EA
:104B2400EF995006E82EF8E93FF9E890600EF0E9B5
:104B3400A3F0EEA3F0EFA3F090600D74C1F07F0C2E
:104B4400021861C082C0839006CA124B679006DEC9
:104B540002480DC082C0839006E1124B679006F0B4
:104B640002480D124B7B124B71F0A3F0222406F580
:104B740082E438F583E422E0F8A3E0C82202011FAE
:104B840074F212178F124C4DFAEE2483F50AE43FA7
:104B9400F50B850A82F583E06004780480027800CE
:104BA400E8240EF8EAC3985003024C4875080C90A8
:104BB40006FCE4F0EE2476124EA79006FDF079028E
:104BC400EE2477FCE43FFD7AFE7B06120B29790282
:104BD400EE2479FCE43FFD120B297902EE247BFCE0
:104BE400E43FFD120B297902EE247DFCE43FFD1223
:104BF4000B29EE2474124CEE120B29850A82850BC4
:104C040083E0601E7508FC75090678081219A27CF9
:104C14000C7903EEFAEFFB120B9B74021217357535
:104C2400081074012508F5D975D9037A0080031298
:104C34004CD9EAC3950840F775E1957904120D2D16
:104C4400790180027900024FF9EAFEEBFF9061D00E
:104C5400E0F87480C3982274F212178F124FFE602A
:104C640004780480027800E8240AF8EAC3984060D3
:104C7400750A089006FC7401F079057CC07D067AFB
:104C8400FD7B06120B29EE2480124CEE120B2985B3
:104C94000882850983E0601E7508FC75090678089A
:104CA4001219A27C087903EEFAEFFB120B9B740233
:104CB400121735750A0C124F588003124CD9EAC3E7
:104CC400950A40F775E1957904120D2D790180025A
:104CD4007900024FF9124CE3F583E0F5D90A22EA90
:104CE400F874FC28F582E4340622FCE43FFD8E824D
:104CF4008F83A3A3A3A3A31259668C828D83E02878
:104D0400F0A3E039F079022274F712178FEAFEEB70
:104D1400FF9061D0E0705B75D91875D90375D9031C
:104D24007A00124A3B249C124DA540F6EE24A412AC
:104D34004D8724A5124D7B124A3B2494124DA54065
:104D4400F67A00124A3B2488124D9240F675E1959A
:104D54007908EE2494FAE43FFB120B2F7904EE2435
:104D640088FAE43FFB120B2F7904120D2D124EB278
:104D740080027900024ED5F582E43FF583E0F5D94F
:104D84007A0022F582E43FF583E0F5D9EE22124D54
:104D940098940422F582E439F583E0F5D90AEAC34C
:104DA40022124D98940822F5831259662274F61241
:104DB400178FEAFEEBFF9006FC7406124E4C121994
:104DC400A27C017903120B9B740212173575D90664
:104DD40075D9037A00124E0640FB75E1959003697C
:104DE400E064087018EE246FF582E43F124DABEED8
:104DF4002471F582E43FF583E8F0A3E9F079010238
:104E04005097124CE3124D9C94052274F612178F9E
:104E1400EAFEEBFF9061D0E070299006FC740A1260
:104E24004E4C1219A27C017903120B9B74021217C7
:104E34003575D90675D9037A00124E0640FB124E19
:104E4400AF80027900025097F07508FC7509067866
:104E5400082274F612178FEAFEEBFF9061D0E0701F
:104E64003D7A019006FC740BF0900369E0640770CE
:104E74001B7508FC75090678081219A27C017903D0
:104E8400EEFA120B9B74021217357A051250AA809F
:104E9400031250B5EBC39A40F8124EAF800279006A
:104EA400025097F582E43FF583E02275E195EE2404
:104EB4006FF582E43FF583125966EE2471F582E4BE
:104EC4003FF583E8F0A3E9F0790122A2E092AF79FB
:104ED400007F0102186174F512178F124F64600489
:104EE400780480027800E8240BF8EAC398405275ED
:104EF4000A099006FC7408F0F9124F4C120B29852C
:104F04000882850983E0601E7508FC750906780827
:104F14001219A27C097903EEFAEFFB120B9B7402BF
:104F2400121735750A0D124F588003124CD9EAC373
:104F3400950A40F775E1957904120D2D124EB28051
:104F44000279007F03021861EE24E5FCE43FFD7A58
:104F5400FD7B06227401250AF5D975D9037A00224E
:104F640012500EF8E43FF9880889098882F583E035
:104F74002274F212178F124FFE60047804800278B4
:104F840000E82408F8EAC3984069750A069006FC0C
:104F9400740CF0900386E09006FDF079027C877D26
:104FA400037AFE7B06120B2979027C897D03120B9E
:104FB40029850882850983E0601E7508FC75090649
:104FC40078081219A27C067903EEFAEFFB120B9B08
:104FD4007402121735750A0A124F588003124CD9FD
:104FE400EAC3950A40F775E1957904120D2D124E26
:104FF400B2800279007F0602186112500EF508E4AF
:105004003FF509850882F583E022EAFEEBFF906113
:10501400D0E0F87480C398FAEE24832274F6121751
:105024008F124C4DFCEE2483F8E43FF98882898387
:10503400E060047A0480027A00EA2404FAECC39A59
:10504400404F7A029006FCEAF0EE24F7F582E43F42
:105054001250C0E0601B7508FC7509067808121927
:10506400A27C027903EEFA120B9B74021217357AB2
:10507400061250AA80031250B5EBC39A40F875E1AA
:105084009512509C7904120D2DEE240D124EB5800C
:105094000279007F02021861EE241DF582E43FF5D7
:1050A40083E4F0A3F02274012AF5D975D9037B00B7
:1050B40022EB124CE4F583E0F5D90B22F583E09062
:1050C40006FDF0888289832274F612178F124C51E0
:1050D400FEEA2483F8E43BF988828983E060047C57
:1050E4000480027C00EC2404FCEEC39C40477C0258
:1050F4009006FC7407F0EA24F8F582E43B1250C0F1
:10510400E060177508FC75090678081219A279037E
:10511400120B9B74021217357C0674012CF5D97599
:10512400D9037A008003124CD9EAC39C40F875E194
:105134009579018002790002509774F712178F89CC
:1051440008A2AFE433FFC2AF7E001251D080010E3B
:105154008C828D83E0F8EEC398500CEEF812517EE9
:10516400E0650870EA800B12517EE50812596CE084
:1051740004F0EFA2E092AF024ED51251E112562E86
:105184002274F712178FA2AFE433FFC2AF1251D0CB
:105194008C828D83E014F07E008016EE1251DC24A4
:1051A4006BF582E439F583E0C0E0125629D0E0F0D3
:1051B4000E8C828D83E0F8EEC39840DFEA246DF50F
:1051C40082E43BF58374FF12520780A6EA246EF84A
:1051D400E43BF9E8FCE9FD22F81251E122EA28F85F
:1051E400E43BF9E822C082C083A8A8C2AFEA125205
:1051F400ABE9125207E8A2E7E433FAE8A2E792AF78
:10520400024812F0EA246912520F22F582E43BF5B7
:1052140083E4F02274F212178F8C828D83A3A3A3EC
:10522400A3E0541FF0EA24361256A88E828F83E43A
:10523400F0750C00A80CEC28F508E43DF509850888
:1052440082F583E0C0E01252B4D0E0F0750D008521
:105254000882850983E0F50A750B00E50D780A12CA
:1052640016EDE50AA2E05025E50C33333354F82556
:105274000DC0E08E828F83E01251DC2438F582E485
:1052840039F583D0E0F08E828F83E004F0050DE5DC
:105294000DC3940840B9050CE50CC3940540950270
:1052A4004FF928F582E422246AF582E43BF583224F
:1052B4001251E1245DF582E439F583227404121756
:1052C400357F04021861C082C083EA2403F582E4B6
:1052D4003BF583E06008E4F0900396E014F090035B
:1052E40095E014F0700690039774FFF08A828B8324
:1052F400A3A3E4F09006C5E0700D900396E064016A
:1053040070057900120CF7024812C082C0837A003B
:10531400EAF875F00DA4C8ABF02B125345A3E412C0
:1053240050C6A3A3A3A3A3A3F00AEAC3940340E033
:10533400900395E4F0A3F0A374FFF075E1F1024843
:1053440012F9749528F8740312561FA3A3A32274A8
:10535400F512178F750800750900750A00A80A125E
:1053640053B38E828F83A3A3A3E0602BE508450982
:10537400601D8508828509831253CA1219B5125318
:10538400C612160112218D7404121735E97008EE45
:10539400F8EFF988088909050AE50AC3940340BDB2
:1053A400850882850983A3A3A3A3E0F9024F47E8F4
:1053B40075F00DA4C8AAF02AF9749928FE7403396B
:1053C400FF228E828F83E0F8A3E0F5838882A3A373
:1053D4002274F712178F78FF79FF7E00EEFC75F0C8
:1053E4000DA4CCAFF02FFD74992CFC74033DFD8CFF
:1053F400828D83A3A3A3E06040EC2473F582E43D93
:10540400F583E0FF74FF68700374FF69700774012B
:105414006F701C800D74016F700DEC24791254525E
:105424005017EC2479800BEC242E125452500AECC1
:10543400242EF582E43D124DAB0EEEC39403409C42
:10544400C3EA98EB994004E8FAE9FB024ED5F582E9
:10545400E43DF583C3E098A3E0992274F012178F1A
:105464008C088D09890EEA2AF50AEB33850A0CF5B6
:105474000D900396E0F8E9C39850117AFF7BFF1270
:105484000AE18A0A8B0BAE0AAF0B8017E96010A3FE
:10549400E0F875F00DA4C8AAF02A1255638004AE92
:1054A4000CAF0D900396E0F50F8E0A8F0B74037802
:1054B4000A1216FDA80FC3E50A98E50B94005003E1
:1054C40002554F850C0A850D0BE50825E0F508E526
:1054D4000933F509AC0AAD0B8007EC2402FCE43D6A
:1054E400FDC3E5089CE5099D404FC3EC9EED9F403C
:1054F4002FECF8EDF9EEFAEFFB1216948A0C8B0DF3
:10550400A80CA90DE8496006EEFAEFFB80047A00C6
:105514007B00EC98F8ED99F9E82AFCE93BFD801949
:10552400E50EC3950F5012EEF8EFF9ECFAEDFB120D
:1055340016948B0DEA450D70A1C3EC950AED950BFD
:105544004009C3E5089CE5099D50067AFF7BFF806E
:1055540009ECFAEDC313FBEA13FA7F08021861F9A8
:1055640074C728F582740339F583E0FEA3E0FF22B3
:1055740074F412178F74FC12171FEAFEEBFFEE246B
:1055840063F508E43FF5098016AA08AB09120B1D60
:1055940012127F9006C6E004F09006C7E004F0857E
:1055A400088285098312595970DF9006C7E0603577
:1055B4008E828F83A3A3A3A3E0851882851983F029
:1055C400A3E4F09006C7E0F8740212176BE8F0A3A6
:1055D400E4F07402121785AA18AB19790112081D98
:1055E4009006C7E4F0EEFAEFFB120ACFEEFAEFFBF7
:1055F400120C250252C074F712178FEAFEEBFF8ECD
:10560400828F83A3A3A3A3E0FA7B001207F3EEFA2D
:10561400EFFB120AED120C07024ED539F988828984
:1056240083A3A3A322E812562E22246AF582E43926
:10563400F58322C082C083E490037D7808F0A3D868
:10564400FC90037D0402447D74F612178FEA240D46
:105654001256A8EC2403F8E43DF988088909EC24DF
:1056640007F8E43DF9E8FCE9FD8C828D83124DAD29
:10567400850882850983E0FAA3E0FB1216948E82E2
:105684008F83E8F0A3E912595F850882850983E0D6
:10569400FAA3E0FB1216948B09EA4509600312563B
:1056A400B1025097F8E43BF9E8FEE9FF228E828FBD
:1056B40083E02401F0A3E03400F02274F612178F83
:1056C400EA242EF582E43BF583E0FCA3E0FDEA2422
:1056D4006F1256A8780079FAECFAEDFB1216948E44
:1056E400828F83E8F0A3E9F0780079FAECFAEDFB15
:1056F4001216948B09EA450960031256B1025097B9
:1057040074F412178FEAFEEBFF120CBB8A088B09A4
:105714008C0A8D0B908FB9780812156F908FAD7825
:10572400081215BD780812199E1253C612160112DA
:10573400218D7404121735E960030257F08E828FAD
:1057440083E02402F8A3E03400F9E8FAE9FB740CDE
:1057540012176B78081215E38A828B837808121566
:1057640082908FAD78081215E38A828B83780812B1
:1057740015D0EE240BF582E43FF583C082C0838EFE
:10578400828F83A3A3A3A3A3E02401F8A3E034009E
:10579400F9D083D082E0687003A3E06970047901D2
:1057A400804CEE2407F8E43FF9888289831256B5C9
:1057B400EE2473124EA764017014EE24741257F58C
:1057C4007003A3E06D70078A828B831256B5EE24B2
:1057D4007F124EA764017014EE24801257F57003F3
:1057E400A3E06D70078A828B831256B5790002524A
:1057F400C5FAE43FFB8A828B83E0FCA3E0FD888248
:105804008983E06C2274F412178FE9FEECFF1258BE
:10581400A6E0640160030258A19061D0E0F8125838
:10582400B0E0F5086005750A048003750A00748009
:10583400C398FC95E0FDEF250AF8E43400F9E82468
:1058440002F8500109C3EC98ED99A2D265D0334017
:1058540048740C12176BE0F50AA3E0F50BE5086039
:1058640015780A1219A2EFFCEEF9120B9B740212BE
:10587400173574042FFF74012FF5D98ED97A00805F
:105884000CEAF8E50A1252A6350B124CDCEAC39F67
:1058940040EF75E195790080067907800279FF026F
:1058A40052C5EA2462F582E43BF58322EA2483F5B7
:1058B40082E43BF5832274F712178FA2AFE433F529
:1058C40008C2AFEA2402F8E43BF98A828B83E0FE43
:1058D400A3E0FFEE4F600E88828983E0FAA3E0F52F
:1058E400838A8280048A828B83ECF0A3ED1250C6F3
:1058F40012590BF0E508024ECF8C828D83E8F0A399
:10590400E9F08A828B8322ECF0A3ED12596CE4F067
:10591400A32274F712178FEAFCEBFD7A007B00A236
:10592400AFE433FEC2AF8C828D831259596022E8F2
:10593400FAE9FB8A828B83124DAD1258FDE4F0A381
:1059440012595FE849700A8C828D83A3A3E4F0A303
:10595400F0EE025177125966E8492212596C125935
:105964006622E0F8A3E0F922F08C828D8322C082C3
:10597400C08380031259A0E9F874FF28F90470F475
:10598400ECFAEDFB024812C082C08380031259A0D6
:10599400E9F874FF28F90470F40248128C828D83AC
:1059A400E08A828B8312596CA3AC82AD838A828B8A
:1059B40083A3AA82AB832274F012178F74FA12178E
:1059C4001F8909ECFEEDFF7508008A0A8B0B780A23
:1059D4001219E6000410F85BFE591C5A365A4E5A46
:1059E4006C5A845AA75ABF5AD35AFD5A785B895BBA
:1059F400A05BBA5BF85BDB5B135B74016509600356
:105A0400025BF38E828F83E0F8C394034003025B4E
:105A1400F3E8901A01025BF0740265096003025B0B
:105A2400F38E828F83126B5B901A02E8F0A3E90273
:105A34005BF0740165096003025BF3125C254003AB
:105A4400025BF3E8900CCF025BF07401650960031C
:105A5400025BF38E828F83E0F8C394054003025BFC
:105A6400F3E8900CD0025BF0740165096003025BFB
:105A7400F3125C254003025BF3E8900CD1025BF067
:105A8400741065096003025BF3750A10750B0078E6
:105A94000A1219A27AD27B0C1211F574021217356C
:105AA400025C19740165096003025BF3125C254012
:105AB40003025BF3E8900CE2025BF0740165096099
:105AC40003025BF38E828F83E0901A05025BF0740D
:105AD4000465096003025BF38E828F83780C1215D0
:105AE400E3908FB1780C1214165003025BF3900C00
:105AF400E4780C1215F2025C19E96003025BF312FC
:105B040004E7E970051210638055900D7780617485
:105B14000765096003025BF3750A06750B00780AD2
:105B24001219A28E828F83A3AC82AD8374021217E2
